{
  "_format": "hh-sol-artifact-1",
  "contractName": "NFT",
  "sourceName": "contracts/NFT.sol",
  "abi": [
    {
      "inputs": [
        {
          "internalType": "address",
          "name": "_txFeeToken",
          "type": "address"
        },
        {
          "internalType": "uint256",
          "name": "_txFeeAmount",
          "type": "uint256"
        }
      ],
      "stateMutability": "nonpayable",
      "type": "constructor"
    },
    {
      "anonymous": false,
      "inputs": [
        {
          "indexed": true,
          "internalType": "address",
          "name": "owner",
          "type": "address"
        },
        {
          "indexed": true,
          "internalType": "address",
          "name": "approved",
          "type": "address"
        },
        {
          "indexed": true,
          "internalType": "uint256",
          "name": "tokenId",
          "type": "uint256"
        }
      ],
      "name": "Approval",
      "type": "event"
    },
    {
      "anonymous": false,
      "inputs": [
        {
          "indexed": true,
          "internalType": "address",
          "name": "owner",
          "type": "address"
        },
        {
          "indexed": true,
          "internalType": "address",
          "name": "operator",
          "type": "address"
        },
        {
          "indexed": false,
          "internalType": "bool",
          "name": "approved",
          "type": "bool"
        }
      ],
      "name": "ApprovalForAll",
      "type": "event"
    },
    {
      "anonymous": false,
      "inputs": [
        {
          "indexed": true,
          "internalType": "address",
          "name": "owner",
          "type": "address"
        },
        {
          "indexed": true,
          "internalType": "uint256",
          "name": "tokenId",
          "type": "uint256"
        },
        {
          "indexed": false,
          "internalType": "string",
          "name": "tokenURI",
          "type": "string"
        }
      ],
      "name": "TokenMinted",
      "type": "event"
    },
    {
      "anonymous": false,
      "inputs": [
        {
          "indexed": true,
          "internalType": "address",
          "name": "from",
          "type": "address"
        },
        {
          "indexed": true,
          "internalType": "address",
          "name": "to",
          "type": "address"
        },
        {
          "indexed": true,
          "internalType": "uint256",
          "name": "tokenId",
          "type": "uint256"
        }
      ],
      "name": "Transfer",
      "type": "event"
    },
    {
      "inputs": [
        {
          "internalType": "address",
          "name": "to",
          "type": "address"
        },
        {
          "internalType": "uint256",
          "name": "tokenId",
          "type": "uint256"
        }
      ],
      "name": "approve",
      "outputs": [],
      "stateMutability": "nonpayable",
      "type": "function"
    },
    {
      "inputs": [],
      "name": "artist",
      "outputs": [
        {
          "internalType": "address",
          "name": "",
          "type": "address"
        }
      ],
      "stateMutability": "view",
      "type": "function"
    },
    {
      "inputs": [
        {
          "internalType": "address",
          "name": "owner",
          "type": "address"
        }
      ],
      "name": "balanceOf",
      "outputs": [
        {
          "internalType": "uint256",
          "name": "",
          "type": "uint256"
        }
      ],
      "stateMutability": "view",
      "type": "function"
    },
    {
      "inputs": [
        {
          "internalType": "address",
          "name": "",
          "type": "address"
        }
      ],
      "name": "excludedList",
      "outputs": [
        {
          "internalType": "bool",
          "name": "",
          "type": "bool"
        }
      ],
      "stateMutability": "view",
      "type": "function"
    },
    {
      "inputs": [
        {
          "internalType": "uint256",
          "name": "tokenId",
          "type": "uint256"
        }
      ],
      "name": "getApproved",
      "outputs": [
        {
          "internalType": "address",
          "name": "",
          "type": "address"
        }
      ],
      "stateMutability": "view",
      "type": "function"
    },
    {
      "inputs": [
        {
          "internalType": "address",
          "name": "owner",
          "type": "address"
        },
        {
          "internalType": "address",
          "name": "operator",
          "type": "address"
        }
      ],
      "name": "isApprovedForAll",
      "outputs": [
        {
          "internalType": "bool",
          "name": "",
          "type": "bool"
        }
      ],
      "stateMutability": "view",
      "type": "function"
    },
    {
      "inputs": [
        {
          "internalType": "string",
          "name": "tokenURI",
          "type": "string"
        }
      ],
      "name": "mintNFT",
      "outputs": [],
      "stateMutability": "nonpayable",
      "type": "function"
    },
    {
      "inputs": [],
      "name": "name",
      "outputs": [
        {
          "internalType": "string",
          "name": "",
          "type": "string"
        }
      ],
      "stateMutability": "view",
      "type": "function"
    },
    {
      "inputs": [
        {
          "internalType": "uint256",
          "name": "tokenId",
          "type": "uint256"
        }
      ],
      "name": "ownerOf",
      "outputs": [
        {
          "internalType": "address",
          "name": "",
          "type": "address"
        }
      ],
      "stateMutability": "view",
      "type": "function"
    },
    {
      "inputs": [
        {
          "internalType": "address",
          "name": "from",
          "type": "address"
        },
        {
          "internalType": "address",
          "name": "to",
          "type": "address"
        },
        {
          "internalType": "uint256",
          "name": "tokenId",
          "type": "uint256"
        }
      ],
      "name": "safeTransferFrom",
      "outputs": [],
      "stateMutability": "nonpayable",
      "type": "function"
    },
    {
      "inputs": [
        {
          "internalType": "address",
          "name": "from",
          "type": "address"
        },
        {
          "internalType": "address",
          "name": "to",
          "type": "address"
        },
        {
          "internalType": "uint256",
          "name": "tokenId",
          "type": "uint256"
        },
        {
          "internalType": "bytes",
          "name": "_data",
          "type": "bytes"
        }
      ],
      "name": "safeTransferFrom",
      "outputs": [],
      "stateMutability": "nonpayable",
      "type": "function"
    },
    {
      "inputs": [
        {
          "internalType": "address",
          "name": "operator",
          "type": "address"
        },
        {
          "internalType": "bool",
          "name": "approved",
          "type": "bool"
        }
      ],
      "name": "setApprovalForAll",
      "outputs": [],
      "stateMutability": "nonpayable",
      "type": "function"
    },
    {
      "inputs": [
        {
          "internalType": "address",
          "name": "excluded",
          "type": "address"
        },
        {
          "internalType": "bool",
          "name": "status",
          "type": "bool"
        }
      ],
      "name": "setExcluded",
      "outputs": [],
      "stateMutability": "nonpayable",
      "type": "function"
    },
    {
      "inputs": [
        {
          "internalType": "bytes4",
          "name": "interfaceId",
          "type": "bytes4"
        }
      ],
      "name": "supportsInterface",
      "outputs": [
        {
          "internalType": "bool",
          "name": "",
          "type": "bool"
        }
      ],
      "stateMutability": "view",
      "type": "function"
    },
    {
      "inputs": [],
      "name": "symbol",
      "outputs": [
        {
          "internalType": "string",
          "name": "",
          "type": "string"
        }
      ],
      "stateMutability": "view",
      "type": "function"
    },
    {
      "inputs": [
        {
          "internalType": "uint256",
          "name": "tokenId",
          "type": "uint256"
        }
      ],
      "name": "tokenURI",
      "outputs": [
        {
          "internalType": "string",
          "name": "",
          "type": "string"
        }
      ],
      "stateMutability": "view",
      "type": "function"
    },
    {
      "inputs": [
        {
          "internalType": "address",
          "name": "from",
          "type": "address"
        },
        {
          "internalType": "address",
          "name": "to",
          "type": "address"
        },
        {
          "internalType": "uint256",
          "name": "tokenId",
          "type": "uint256"
        }
      ],
      "name": "transferFrom",
      "outputs": [],
      "stateMutability": "nonpayable",
      "type": "function"
    },
    {
      "inputs": [],
      "name": "txFeeAmount",
      "outputs": [
        {
          "internalType": "uint256",
          "name": "",
          "type": "uint256"
        }
      ],
      "stateMutability": "view",
      "type": "function"
    },
    {
      "inputs": [],
      "name": "txFeeToken",
      "outputs": [
        {
          "internalType": "address",
          "name": "",
          "type": "address"
        }
      ],
      "stateMutability": "view",
      "type": "function"
    }
  ],
  "bytecode": "0x60806040523480156200001157600080fd5b50604051620032ab380380620032ab83398181016040528101906200003791906200027c565b6040518060400160405280600c81526020017f52616e646f6d41726974737400000000000000000000000000000000000000008152506040518060400160405280600381526020017f41424300000000000000000000000000000000000000000000000000000000008152508160009080519060200190620000bb92919062000127565b508060019080519060200190620000d492919062000127565b50505081600960006101000a81548173ffffffffffffffffffffffffffffffffffffffff021916908373ffffffffffffffffffffffffffffffffffffffff16021790555080600a81905550505062000328565b8280546200013590620002f2565b90600052602060002090601f016020900481019282620001595760008555620001a5565b82601f106200017457805160ff1916838001178555620001a5565b82800160010185558215620001a5579182015b82811115620001a457825182559160200191906001019062000187565b5b509050620001b49190620001b8565b5090565b5b80821115620001d3576000816000905550600101620001b9565b5090565b600080fd5b600073ffffffffffffffffffffffffffffffffffffffff82169050919050565b60006200020982620001dc565b9050919050565b6200021b81620001fc565b81146200022757600080fd5b50565b6000815190506200023b8162000210565b92915050565b6000819050919050565b620002568162000241565b81146200026257600080fd5b50565b60008151905062000276816200024b565b92915050565b60008060408385031215620002965762000295620001d7565b5b6000620002a6858286016200022a565b9250506020620002b98582860162000265565b9150509250929050565b7f4e487b7100000000000000000000000000000000000000000000000000000000600052602260045260246000fd5b600060028204905060018216806200030b57607f821691505b60208210811415620003225762000321620002c3565b5b50919050565b612f7380620003386000396000f3fe608060405234801561001057600080fd5b50600436106101215760003560e01c80636352211e116100ad578063a22cb46511610071578063a22cb4651461031c578063b88d4fde14610338578063c87b56dd14610354578063e985e9c514610384578063fb37e883146103b457610121565b80636352211e1461026257806370a082311461029257806377c567a7146102c25780638fbceaad146102e057806395d89b41146102fe57610121565b806323b872dd116100f457806323b872dd146101c05780632836be24146101dc57806342842e0e146101f857806343bc1612146102145780635600d2fa1461023257610121565b806301ffc9a71461012657806306fdde0314610156578063081812fc14610174578063095ea7b3146101a4575b600080fd5b610140600480360381019061013b9190611e71565b6103d0565b60405161014d9190611eb9565b60405180910390f35b61015e6104b2565b60405161016b9190611f6d565b60405180910390f35b61018e60048036038101906101899190611fc5565b610544565b60405161019b9190612033565b60405180910390f35b6101be60048036038101906101b9919061207a565b61058a565b005b6101da60048036038101906101d591906120ba565b6106a2565b005b6101f660048036038101906101f19190612139565b610765565b005b610212600480360381019061020d91906120ba565b610850565b005b61021c610923565b6040516102299190612033565b60405180910390f35b61024c60048036038101906102479190612179565b610949565b6040516102599190611eb9565b60405180910390f35b61027c60048036038101906102779190611fc5565b610969565b6040516102899190612033565b60405180910390f35b6102ac60048036038101906102a79190612179565b610a1b565b6040516102b991906121b5565b60405180910390f35b6102ca610ad3565b6040516102d79190612033565b60405180910390f35b6102e8610af9565b6040516102f591906121b5565b60405180910390f35b610306610aff565b6040516103139190611f6d565b60405180910390f35b61033660048036038101906103319190612139565b610b91565b005b610352600480360381019061034d9190612305565b610ba7565b005b61036e60048036038101906103699190611fc5565b610c6c565b60405161037b9190611f6d565b60405180910390f35b61039e60048036038101906103999190612388565b610d7f565b6040516103ab9190611eb9565b60405180910390f35b6103ce60048036038101906103c99190612469565b610e13565b005b60007f80ac58cd000000000000000000000000000000000000000000000000000000007bffffffffffffffffffffffffffffffffffffffffffffffffffffffff1916827bffffffffffffffffffffffffffffffffffffffffffffffffffffffff1916148061049b57507f5b5e139f000000000000000000000000000000000000000000000000000000007bffffffffffffffffffffffffffffffffffffffffffffffffffffffff1916827bffffffffffffffffffffffffffffffffffffffffffffffffffffffff1916145b806104ab57506104aa82610f4d565b5b9050919050565b6060600080546104c1906124e1565b80601f01602080910402602001604051908101604052809291908181526020018280546104ed906124e1565b801561053a5780601f1061050f5761010080835404028352916020019161053a565b820191906000526020600020905b81548152906001019060200180831161051d57829003601f168201915b5050505050905090565b600061054f82610fb7565b6004600083815260200190815260200160002060009054906101000a900473ffffffffffffffffffffffffffffffffffffffff169050919050565b600061059582610969565b90508073ffffffffffffffffffffffffffffffffffffffff168373ffffffffffffffffffffffffffffffffffffffff161415610606576040517f08c379a00000000000000000000000000000000000000000000000000000000081526004016105fd90612585565b60405180910390fd5b8073ffffffffffffffffffffffffffffffffffffffff16610625611002565b73ffffffffffffffffffffffffffffffffffffffff16148061065457506106538161064e611002565b610d7f565b5b610693576040517f08c379a000000000000000000000000000000000000000000000000000000000815260040161068a90612617565b60405180910390fd5b61069d838361100a565b505050565b6106b36106ad611002565b826110c3565b6106f2576040517f08c379a00000000000000000000000000000000000000000000000000000000081526004016106e9906126a9565b60405180910390fd5b60001515600b60008573ffffffffffffffffffffffffffffffffffffffff1673ffffffffffffffffffffffffffffffffffffffff16815260200190815260200160002060009054906101000a900460ff16151514156107555761075483611158565b5b610760838383611237565b505050565b600860009054906101000a900473ffffffffffffffffffffffffffffffffffffffff1673ffffffffffffffffffffffffffffffffffffffff163373ffffffffffffffffffffffffffffffffffffffff16146107f5576040517f08c379a00000000000000000000000000000000000000000000000000000000081526004016107ec90612715565b60405180910390fd5b80600b60008473ffffffffffffffffffffffffffffffffffffffff1673ffffffffffffffffffffffffffffffffffffffff16815260200190815260200160002060006101000a81548160ff0219169083151502179055505050565b61086161085b611002565b826110c3565b6108a0576040517f08c379a0000000000000000000000000000000000000000000000000000000008152600401610897906126a9565b60405180910390fd5b60001515600b60008573ffffffffffffffffffffffffffffffffffffffff1673ffffffffffffffffffffffffffffffffffffffff16815260200190815260200160002060009054906101000a900460ff16151514156109035761090283611158565b5b61091e83838360405180602001604052806000815250610ba7565b505050565b600860009054906101000a900473ffffffffffffffffffffffffffffffffffffffff1681565b600b6020528060005260406000206000915054906101000a900460ff1681565b6000806002600084815260200190815260200160002060009054906101000a900473ffffffffffffffffffffffffffffffffffffffff169050600073ffffffffffffffffffffffffffffffffffffffff168173ffffffffffffffffffffffffffffffffffffffff161415610a12576040517f08c379a0000000000000000000000000000000000000000000000000000000008152600401610a0990612781565b60405180910390fd5b80915050919050565b60008073ffffffffffffffffffffffffffffffffffffffff168273ffffffffffffffffffffffffffffffffffffffff161415610a8c576040517f08c379a0000000000000000000000000000000000000000000000000000000008152600401610a8390612813565b60405180910390fd5b600360008373ffffffffffffffffffffffffffffffffffffffff1673ffffffffffffffffffffffffffffffffffffffff168152602001908152602001600020549050919050565b600960009054906101000a900473ffffffffffffffffffffffffffffffffffffffff1681565b600a5481565b606060018054610b0e906124e1565b80601f0160208091040260200160405190810160405280929190818152602001828054610b3a906124e1565b8015610b875780601f10610b5c57610100808354040283529160200191610b87565b820191906000526020600020905b815481529060010190602001808311610b6a57829003601f168201915b5050505050905090565b610ba3610b9c611002565b838361149e565b5050565b610bb8610bb2611002565b836110c3565b610bf7576040517f08c379a0000000000000000000000000000000000000000000000000000000008152600401610bee906126a9565b60405180910390fd5b60001515600b60008673ffffffffffffffffffffffffffffffffffffffff1673ffffffffffffffffffffffffffffffffffffffff16815260200190815260200160002060009054906101000a900460ff1615151415610c5a57610c5984611158565b5b610c668484848461160b565b50505050565b6060610c7782610fb7565b6000600660008481526020019081526020016000208054610c97906124e1565b80601f0160208091040260200160405190810160405280929190818152602001828054610cc3906124e1565b8015610d105780601f10610ce557610100808354040283529160200191610d10565b820191906000526020600020905b815481529060010190602001808311610cf357829003601f168201915b505050505090506000610d21611667565b9050600081511415610d37578192505050610d7a565b600082511115610d6c578082604051602001610d5492919061286f565b60405160208183030381529060405292505050610d7a565b610d758461167e565b925050505b919050565b6000600560008473ffffffffffffffffffffffffffffffffffffffff1673ffffffffffffffffffffffffffffffffffffffff16815260200190815260200160002060008373ffffffffffffffffffffffffffffffffffffffff1673ffffffffffffffffffffffffffffffffffffffff16815260200190815260200160002060009054906101000a900460ff16905092915050565b610e1d60076116e6565b6000610e2960076116fc565b9050610e35338261170a565b610e3f8183611728565b33600860006101000a81548173ffffffffffffffffffffffffffffffffffffffff021916908373ffffffffffffffffffffffffffffffffffffffff1602179055506001600b6000600860009054906101000a900473ffffffffffffffffffffffffffffffffffffffff1673ffffffffffffffffffffffffffffffffffffffff1673ffffffffffffffffffffffffffffffffffffffff16815260200190815260200160002060006101000a81548160ff021916908315150217905550803373ffffffffffffffffffffffffffffffffffffffff167fdf92894dc4675a7333caa5903b69cf5d8e8ec0d3f361c88207b6688e525703bb84604051610f419190611f6d565b60405180910390a35050565b60007f01ffc9a7000000000000000000000000000000000000000000000000000000007bffffffffffffffffffffffffffffffffffffffffffffffffffffffff1916827bffffffffffffffffffffffffffffffffffffffffffffffffffffffff1916149050919050565b610fc08161179c565b610fff576040517f08c379a0000000000000000000000000000000000000000000000000000000008152600401610ff690612781565b60405180910390fd5b50565b600033905090565b816004600083815260200190815260200160002060006101000a81548173ffffffffffffffffffffffffffffffffffffffff021916908373ffffffffffffffffffffffffffffffffffffffff160217905550808273ffffffffffffffffffffffffffffffffffffffff1661107d83610969565b73ffffffffffffffffffffffffffffffffffffffff167f8c5be1e5ebec7d5bd14f71427d1e84f3dd0314c0f7b2291e5b200ac8c7c3b92560405160405180910390a45050565b6000806110cf83610969565b90508073ffffffffffffffffffffffffffffffffffffffff168473ffffffffffffffffffffffffffffffffffffffff16148061111157506111108185610d7f565b5b8061114f57508373ffffffffffffffffffffffffffffffffffffffff1661113784610544565b73ffffffffffffffffffffffffffffffffffffffff16145b91505092915050565b6000600960009054906101000a900473ffffffffffffffffffffffffffffffffffffffff1690508073ffffffffffffffffffffffffffffffffffffffff166323b872dd83600860009054906101000a900473ffffffffffffffffffffffffffffffffffffffff16600a546040518463ffffffff1660e01b81526004016111e093929190612893565b602060405180830381600087803b1580156111fa57600080fd5b505af115801561120e573d6000803e3d6000fd5b505050506040513d601f19601f8201168201806040525081019061123291906128df565b505050565b8273ffffffffffffffffffffffffffffffffffffffff1661125782610969565b73ffffffffffffffffffffffffffffffffffffffff16146112ad576040517f08c379a00000000000000000000000000000000000000000000000000000000081526004016112a49061297e565b60405180910390fd5b600073ffffffffffffffffffffffffffffffffffffffff168273ffffffffffffffffffffffffffffffffffffffff16141561131d576040517f08c379a000000000000000000000000000000000000000000000000000000000815260040161131490612a10565b60405180910390fd5b611328838383611808565b61133360008261100a565b6001600360008573ffffffffffffffffffffffffffffffffffffffff1673ffffffffffffffffffffffffffffffffffffffff16815260200190815260200160002060008282546113839190612a5f565b925050819055506001600360008473ffffffffffffffffffffffffffffffffffffffff1673ffffffffffffffffffffffffffffffffffffffff16815260200190815260200160002060008282546113da9190612a93565b92505081905550816002600083815260200190815260200160002060006101000a81548173ffffffffffffffffffffffffffffffffffffffff021916908373ffffffffffffffffffffffffffffffffffffffff160217905550808273ffffffffffffffffffffffffffffffffffffffff168473ffffffffffffffffffffffffffffffffffffffff167fddf252ad1be2c89b69c2b068fc378daa952ba7f163c4a11628f55a4df523b3ef60405160405180910390a461149983838361180d565b505050565b8173ffffffffffffffffffffffffffffffffffffffff168373ffffffffffffffffffffffffffffffffffffffff16141561150d576040517f08c379a000000000000000000000000000000000000000000000000000000000815260040161150490612b35565b60405180910390fd5b80600560008573ffffffffffffffffffffffffffffffffffffffff1673ffffffffffffffffffffffffffffffffffffffff16815260200190815260200160002060008473ffffffffffffffffffffffffffffffffffffffff1673ffffffffffffffffffffffffffffffffffffffff16815260200190815260200160002060006101000a81548160ff0219169083151502179055508173ffffffffffffffffffffffffffffffffffffffff168373ffffffffffffffffffffffffffffffffffffffff167f17307eab39ab6107e8899845ad3d59bd9653f200f220920489ca2b5937696c31836040516115fe9190611eb9565b60405180910390a3505050565b611616848484611237565b61162284848484611812565b611661576040517f08c379a000000000000000000000000000000000000000000000000000000000815260040161165890612bc7565b60405180910390fd5b50505050565b606060405180602001604052806000815250905090565b606061168982610fb7565b6000611693611667565b905060008151116116b357604051806020016040528060008152506116de565b806116bd846119a9565b6040516020016116ce92919061286f565b6040516020818303038152906040525b915050919050565b6001816000016000828254019250508190555050565b600081600001549050919050565b611724828260405180602001604052806000815250611b0a565b5050565b6117318261179c565b611770576040517f08c379a000000000000000000000000000000000000000000000000000000000815260040161176790612c59565b60405180910390fd5b80600660008481526020019081526020016000209080519060200190611797929190611d62565b505050565b60008073ffffffffffffffffffffffffffffffffffffffff166002600084815260200190815260200160002060009054906101000a900473ffffffffffffffffffffffffffffffffffffffff1673ffffffffffffffffffffffffffffffffffffffff1614159050919050565b505050565b505050565b60006118338473ffffffffffffffffffffffffffffffffffffffff16611b65565b1561199c578373ffffffffffffffffffffffffffffffffffffffff1663150b7a0261185c611002565b8786866040518563ffffffff1660e01b815260040161187e9493929190612cce565b602060405180830381600087803b15801561189857600080fd5b505af19250505080156118c957506040513d601f19601f820116820180604052508101906118c69190612d2f565b60015b61194c573d80600081146118f9576040519150601f19603f3d011682016040523d82523d6000602084013e6118fe565b606091505b50600081511415611944576040517f08c379a000000000000000000000000000000000000000000000000000000000815260040161193b90612bc7565b60405180910390fd5b805181602001fd5b63150b7a0260e01b7bffffffffffffffffffffffffffffffffffffffffffffffffffffffff1916817bffffffffffffffffffffffffffffffffffffffffffffffffffffffff1916149150506119a1565b600190505b949350505050565b606060008214156119f1576040518060400160405280600181526020017f30000000000000000000000000000000000000000000000000000000000000008152509050611b05565b600082905060005b60008214611a23578080611a0c90612d5c565b915050600a82611a1c9190612dd4565b91506119f9565b60008167ffffffffffffffff811115611a3f57611a3e6121da565b5b6040519080825280601f01601f191660200182016040528015611a715781602001600182028036833780820191505090505b5090505b60008514611afe57600182611a8a9190612a5f565b9150600a85611a999190612e05565b6030611aa59190612a93565b60f81b818381518110611abb57611aba612e36565b5b60200101907effffffffffffffffffffffffffffffffffffffffffffffffffffffffffffff1916908160001a905350600a85611af79190612dd4565b9450611a75565b8093505050505b919050565b611b148383611b88565b611b216000848484611812565b611b60576040517f08c379a0000000000000000000000000000000000000000000000000000000008152600401611b5790612bc7565b60405180910390fd5b505050565b6000808273ffffffffffffffffffffffffffffffffffffffff163b119050919050565b600073ffffffffffffffffffffffffffffffffffffffff168273ffffffffffffffffffffffffffffffffffffffff161415611bf8576040517f08c379a0000000000000000000000000000000000000000000000000000000008152600401611bef90612eb1565b60405180910390fd5b611c018161179c565b15611c41576040517f08c379a0000000000000000000000000000000000000000000000000000000008152600401611c3890612f1d565b60405180910390fd5b611c4d60008383611808565b6001600360008473ffffffffffffffffffffffffffffffffffffffff1673ffffffffffffffffffffffffffffffffffffffff1681526020019081526020016000206000828254611c9d9190612a93565b92505081905550816002600083815260200190815260200160002060006101000a81548173ffffffffffffffffffffffffffffffffffffffff021916908373ffffffffffffffffffffffffffffffffffffffff160217905550808273ffffffffffffffffffffffffffffffffffffffff16600073ffffffffffffffffffffffffffffffffffffffff167fddf252ad1be2c89b69c2b068fc378daa952ba7f163c4a11628f55a4df523b3ef60405160405180910390a4611d5e6000838361180d565b5050565b828054611d6e906124e1565b90600052602060002090601f016020900481019282611d905760008555611dd7565b82601f10611da957805160ff1916838001178555611dd7565b82800160010185558215611dd7579182015b82811115611dd6578251825591602001919060010190611dbb565b5b509050611de49190611de8565b5090565b5b80821115611e01576000816000905550600101611de9565b5090565b6000604051905090565b600080fd5b600080fd5b60007fffffffff0000000000000000000000000000000000000000000000000000000082169050919050565b611e4e81611e19565b8114611e5957600080fd5b50565b600081359050611e6b81611e45565b92915050565b600060208284031215611e8757611e86611e0f565b5b6000611e9584828501611e5c565b91505092915050565b60008115159050919050565b611eb381611e9e565b82525050565b6000602082019050611ece6000830184611eaa565b92915050565b600081519050919050565b600082825260208201905092915050565b60005b83811015611f0e578082015181840152602081019050611ef3565b83811115611f1d576000848401525b50505050565b6000601f19601f8301169050919050565b6000611f3f82611ed4565b611f498185611edf565b9350611f59818560208601611ef0565b611f6281611f23565b840191505092915050565b60006020820190508181036000830152611f878184611f34565b905092915050565b6000819050919050565b611fa281611f8f565b8114611fad57600080fd5b50565b600081359050611fbf81611f99565b92915050565b600060208284031215611fdb57611fda611e0f565b5b6000611fe984828501611fb0565b91505092915050565b600073ffffffffffffffffffffffffffffffffffffffff82169050919050565b600061201d82611ff2565b9050919050565b61202d81612012565b82525050565b60006020820190506120486000830184612024565b92915050565b61205781612012565b811461206257600080fd5b50565b6000813590506120748161204e565b92915050565b6000806040838503121561209157612090611e0f565b5b600061209f85828601612065565b92505060206120b085828601611fb0565b9150509250929050565b6000806000606084860312156120d3576120d2611e0f565b5b60006120e186828701612065565b93505060206120f286828701612065565b925050604061210386828701611fb0565b9150509250925092565b61211681611e9e565b811461212157600080fd5b50565b6000813590506121338161210d565b92915050565b600080604083850312156121505761214f611e0f565b5b600061215e85828601612065565b925050602061216f85828601612124565b9150509250929050565b60006020828403121561218f5761218e611e0f565b5b600061219d84828501612065565b91505092915050565b6121af81611f8f565b82525050565b60006020820190506121ca60008301846121a6565b92915050565b600080fd5b600080fd5b7f4e487b7100000000000000000000000000000000000000000000000000000000600052604160045260246000fd5b61221282611f23565b810181811067ffffffffffffffff82111715612231576122306121da565b5b80604052505050565b6000612244611e05565b90506122508282612209565b919050565b600067ffffffffffffffff8211156122705761226f6121da565b5b61227982611f23565b9050602081019050919050565b82818337600083830152505050565b60006122a86122a384612255565b61223a565b9050828152602081018484840111156122c4576122c36121d5565b5b6122cf848285612286565b509392505050565b600082601f8301126122ec576122eb6121d0565b5b81356122fc848260208601612295565b91505092915050565b6000806000806080858703121561231f5761231e611e0f565b5b600061232d87828801612065565b945050602061233e87828801612065565b935050604061234f87828801611fb0565b925050606085013567ffffffffffffffff8111156123705761236f611e14565b5b61237c878288016122d7565b91505092959194509250565b6000806040838503121561239f5761239e611e0f565b5b60006123ad85828601612065565b92505060206123be85828601612065565b9150509250929050565b600067ffffffffffffffff8211156123e3576123e26121da565b5b6123ec82611f23565b9050602081019050919050565b600061240c612407846123c8565b61223a565b905082815260208101848484011115612428576124276121d5565b5b612433848285612286565b509392505050565b600082601f8301126124505761244f6121d0565b5b81356124608482602086016123f9565b91505092915050565b60006020828403121561247f5761247e611e0f565b5b600082013567ffffffffffffffff81111561249d5761249c611e14565b5b6124a98482850161243b565b91505092915050565b7f4e487b7100000000000000000000000000000000000000000000000000000000600052602260045260246000fd5b600060028204905060018216806124f957607f821691505b6020821081141561250d5761250c6124b2565b5b50919050565b7f4552433732313a20617070726f76616c20746f2063757272656e74206f776e6560008201527f7200000000000000000000000000000000000000000000000000000000000000602082015250565b600061256f602183611edf565b915061257a82612513565b604082019050919050565b6000602082019050818103600083015261259e81612562565b9050919050565b7f4552433732313a20617070726f76652063616c6c6572206973206e6f7420746f60008201527f6b656e206f776e6572206e6f7220617070726f76656420666f7220616c6c0000602082015250565b6000612601603e83611edf565b915061260c826125a5565b604082019050919050565b60006020820190508181036000830152612630816125f4565b9050919050565b7f4552433732313a207472616e736665722063616c6c6572206973206e6f74206f60008201527f776e6572206e6f7220617070726f766564000000000000000000000000000000602082015250565b6000612693603183611edf565b915061269e82612637565b604082019050919050565b600060208201905081810360008301526126c281612686565b9050919050565b7f617274697374206f6e6c79000000000000000000000000000000000000000000600082015250565b60006126ff600b83611edf565b915061270a826126c9565b602082019050919050565b6000602082019050818103600083015261272e816126f2565b9050919050565b7f4552433732313a20696e76616c696420746f6b656e2049440000000000000000600082015250565b600061276b601883611edf565b915061277682612735565b602082019050919050565b6000602082019050818103600083015261279a8161275e565b9050919050565b7f4552433732313a2061646472657373207a65726f206973206e6f74206120766160008201527f6c6964206f776e65720000000000000000000000000000000000000000000000602082015250565b60006127fd602983611edf565b9150612808826127a1565b604082019050919050565b6000602082019050818103600083015261282c816127f0565b9050919050565b600081905092915050565b600061284982611ed4565b6128538185612833565b9350612863818560208601611ef0565b80840191505092915050565b600061287b828561283e565b9150612887828461283e565b91508190509392505050565b60006060820190506128a86000830186612024565b6128b56020830185612024565b6128c260408301846121a6565b949350505050565b6000815190506128d98161210d565b92915050565b6000602082840312156128f5576128f4611e0f565b5b6000612903848285016128ca565b91505092915050565b7f4552433732313a207472616e736665722066726f6d20696e636f72726563742060008201527f6f776e6572000000000000000000000000000000000000000000000000000000602082015250565b6000612968602583611edf565b91506129738261290c565b604082019050919050565b600060208201905081810360008301526129978161295b565b9050919050565b7f4552433732313a207472616e7366657220746f20746865207a65726f2061646460008201527f7265737300000000000000000000000000000000000000000000000000000000602082015250565b60006129fa602483611edf565b9150612a058261299e565b604082019050919050565b60006020820190508181036000830152612a29816129ed565b9050919050565b7f4e487b7100000000000000000000000000000000000000000000000000000000600052601160045260246000fd5b6000612a6a82611f8f565b9150612a7583611f8f565b925082821015612a8857612a87612a30565b5b828203905092915050565b6000612a9e82611f8f565b9150612aa983611f8f565b9250827fffffffffffffffffffffffffffffffffffffffffffffffffffffffffffffffff03821115612ade57612add612a30565b5b828201905092915050565b7f4552433732313a20617070726f766520746f2063616c6c657200000000000000600082015250565b6000612b1f601983611edf565b9150612b2a82612ae9565b602082019050919050565b60006020820190508181036000830152612b4e81612b12565b9050919050565b7f4552433732313a207472616e7366657220746f206e6f6e20455243373231526560008201527f63656976657220696d706c656d656e7465720000000000000000000000000000602082015250565b6000612bb1603283611edf565b9150612bbc82612b55565b604082019050919050565b60006020820190508181036000830152612be081612ba4565b9050919050565b7f45524337323155524953746f726167653a2055524920736574206f66206e6f6e60008201527f6578697374656e7420746f6b656e000000000000000000000000000000000000602082015250565b6000612c43602e83611edf565b9150612c4e82612be7565b604082019050919050565b60006020820190508181036000830152612c7281612c36565b9050919050565b600081519050919050565b600082825260208201905092915050565b6000612ca082612c79565b612caa8185612c84565b9350612cba818560208601611ef0565b612cc381611f23565b840191505092915050565b6000608082019050612ce36000830187612024565b612cf06020830186612024565b612cfd60408301856121a6565b8181036060830152612d0f8184612c95565b905095945050505050565b600081519050612d2981611e45565b92915050565b600060208284031215612d4557612d44611e0f565b5b6000612d5384828501612d1a565b91505092915050565b6000612d6782611f8f565b91507fffffffffffffffffffffffffffffffffffffffffffffffffffffffffffffffff821415612d9a57612d99612a30565b5b600182019050919050565b7f4e487b7100000000000000000000000000000000000000000000000000000000600052601260045260246000fd5b6000612ddf82611f8f565b9150612dea83611f8f565b925082612dfa57612df9612da5565b5b828204905092915050565b6000612e1082611f8f565b9150612e1b83611f8f565b925082612e2b57612e2a612da5565b5b828206905092915050565b7f4e487b7100000000000000000000000000000000000000000000000000000000600052603260045260246000fd5b7f4552433732313a206d696e7420746f20746865207a65726f2061646472657373600082015250565b6000612e9b602083611edf565b9150612ea682612e65565b602082019050919050565b60006020820190508181036000830152612eca81612e8e565b9050919050565b7f4552433732313a20746f6b656e20616c7265616479206d696e74656400000000600082015250565b6000612f07601c83611edf565b9150612f1282612ed1565b602082019050919050565b60006020820190508181036000830152612f3681612efa565b905091905056fea26469706673582212204763747b47d63f73b49db51721f6bcc64af3e58cd059ce9e00efc3946015d6ce64736f6c63430008090033",
  "linkReferences": {},
  "deployedLinkReferences": {}
}